{
  "contractName": "Solar",
  "abi": [
    {
      "constant": true,
      "inputs": [],
      "name": "maxPlanets",
      "outputs": [
        {
          "name": "",
          "type": "uint16"
        }
      ],
      "payable": false,
      "stateMutability": "view",
      "type": "function"
    },
    {
      "constant": true,
      "inputs": [
        {
          "name": "planetId",
          "type": "uint32"
        }
      ],
      "name": "getPlanet",
      "outputs": [
        {
          "components": [
            {
              "name": "mass",
              "type": "uint256"
            },
            {
              "name": "x",
              "type": "uint256"
            },
            {
              "name": "y",
              "type": "uint256"
            },
            {
              "name": "vx",
              "type": "uint256"
            },
            {
              "name": "vy",
              "type": "uint256"
            },
            {
              "name": "name",
              "type": "bytes32"
            }
          ],
          "name": "name",
          "type": "bytes32"
        },
        {
          "name": "mass",
          "type": "uint256"
        },
        {
          "name": "x",
          "type": "uint256"
        },
        {
          "name": "y",
          "type": "uint256"
        },
        {
          "name": "vx",
          "type": "uint256"
        },
        {
          "name": "vy",
          "type": "uint256"
        }
      ],
      "payable": false,
      "stateMutability": "view",
      "type": "function"
    },
    {
      "constant": true,
      "inputs": [],
      "name": "nextId",
      "outputs": [
        {
          "name": "",
          "type": "uint32"
        }
      ],
      "payable": false,
      "stateMutability": "view",
      "type": "function"
    },
    {
      "constant": true,
      "inputs": [
        {
          "name": "x",
          "type": "uint256"
        }
      ],
      "name": "sqrt",
      "outputs": [
        {
          "name": "y",
          "type": "uint256"
        }
      ],
      "payable": false,
      "stateMutability": "pure",
      "type": "function"
    },
    {
      "constant": true,
      "inputs": [
        {
          "name": "startIndex",
          "type": "uint16"
        }
      ],
      "name": "get10Planets",
      "outputs": [
        {
          "components": [
            {
              "name": "mass",
              "type": "uint256"
            },
            {
              "name": "x",
              "type": "uint256"
            },
            {
              "name": "y",
              "type": "uint256"
            },
            {
              "name": "vx",
              "type": "uint256"
            },
            {
              "name": "vy",
              "type": "uint256"
            },
            {
              "name": "name",
              "type": "bytes32"
            }
          ],
          "name": "planetsToReturn",
          "type": "tuple[10]"
        }
      ],
      "payable": false,
      "stateMutability": "view",
      "type": "function"
    },
    {
      "constant": true,
      "inputs": [],
      "name": "numPlanets",
      "outputs": [
        {
          "name": "",
          "type": "uint32"
        }
      ],
      "payable": false,
      "stateMutability": "view",
      "type": "function"
    },
    {
      "constant": true,
      "inputs": [
        {
          "name": "name",
          "type": "bytes32"
        },
        {
          "name": "x",
          "type": "uint256"
        },
        {
          "name": "y",
          "type": "uint256"
        },
        {
          "name": "initialVx",
          "type": "uint256"
        },
        {
          "name": "initialVy",
          "type": "uint256"
        }
      ],
      "name": "getNumPlanets",
      "outputs": [
        {
          "components": [
            {
              "name": "mass",
              "type": "uint256"
            },
            {
              "name": "x",
              "type": "uint256"
            },
            {
              "name": "y",
              "type": "uint256"
            },
            {
              "name": "vx",
              "type": "uint256"
            },
            {
              "name": "vy",
              "type": "uint256"
            },
            {
              "name": "name",
              "type": "bytes32"
            }
          ],
          "name": "numPlanets",
          "type": "uint256"
        }
      ],
      "payable": false,
      "stateMutability": "view",
      "type": "function"
    },
    {
      "constant": false,
      "inputs": [
        {
          "name": "name",
          "type": "bytes32"
        },
        {
          "name": "x",
          "type": "uint256"
        },
        {
          "name": "y",
          "type": "uint256"
        },
        {
          "name": "initialVx",
          "type": "uint256"
        },
        {
          "name": "initialVy",
          "type": "uint256"
        }
      ],
      "name": "addPlanet",
      "outputs": [
        {
          "components": [
            {
              "name": "mass",
              "type": "uint256"
            },
            {
              "name": "x",
              "type": "uint256"
            },
            {
              "name": "y",
              "type": "uint256"
            },
            {
              "name": "vx",
              "type": "uint256"
            },
            {
              "name": "vy",
              "type": "uint256"
            },
            {
              "name": "name",
              "type": "bytes32"
            }
          ],
          "name": "planet",
          "type": "tuple"
        }
      ],
      "payable": true,
      "stateMutability": "payable",
      "type": "function"
    },
    {
      "constant": true,
      "inputs": [
        {
          "name": "",
          "type": "uint256"
        }
      ],
      "name": "ids",
      "outputs": [
        {
          "name": "",
          "type": "uint32"
        }
      ],
      "payable": false,
      "stateMutability": "view",
      "type": "function"
    }
  ],
  "bytecode": "0x6060604052341561000f57600080fd5b61073f8061001e6000396000f300606060405260043610610099576000357c0100000000000000000000000000000000000000000000000000000000900463ffffffff1680634d3783a41461009e578063503f1a43146100cf57806361b8ce8c14610137578063677342ce1461016c578063754e0ddf146101a357806376b00e4314610201578063c6472b0d14610236578063c93b13c91461025f578063fac333ac146102b3575b600080fd5b34156100a957600080fd5b6100b16102f6565b604051808261ffff1661ffff16815260200191505060405180910390f35b34156100da57600080fd5b6100f6600480803563ffffffff1690602001909190505061030a565b604051808760001916600019168152602001868152602001858152602001848152602001838152602001828152602001965050505050505060405180910390f35b341561014257600080fd5b61014a61036a565b604051808263ffffffff1663ffffffff16815260200191505060405180910390f35b341561017757600080fd5b61018d6004808035906020019091905050610380565b6040518082815260200191505060405180910390f35b34156101ae57600080fd5b6101c8600480803561ffff169060200190919050506103cb565b6040518082600a6000925b818410156101f15782846020020151815260200192600101926101d3565b9250505091505060405180910390f35b341561020c57600080fd5b6102146104d3565b604051808263ffffffff1663ffffffff16815260200191505060405180910390f35b341561024157600080fd5b6102496104e9565b6040518082815260200191505060405180910390f35b61029d6004808035600019169060200190919080359060200190919080359060200190919080359060200190919080359060200190919050506104f1565b6040518082815260200191505060405180910390f35b34156102be57600080fd5b6102d4600480803590602001909190505061057c565b604051808263ffffffff1663ffffffff16815260200191505060405180910390f35b600360049054906101000a900461ffff1681565b6000806000806000806000600260008963ffffffff1663ffffffff16815260200190815260200160002090508060050154816000015482600101548360020154846003015485600401549650965096509650965096505091939550919395565b600160009054906101000a900463ffffffff1681565b60008060026001840181151561039257fe5b0490508291505b818110156103c55780915060028182858115156103b257fe5b04018115156103bd57fe5b049050610399565b50919050565b6103d3610670565b600080600360009054906101000a900463ffffffff1663ffffffff16600a850161ffff161161040957600a840161ffff1661041d565b600360009054906101000a900463ffffffff165b91508390505b8163ffffffff168161ffff1610156104c957600260008261ffff1663ffffffff16815260200190815260200160002060c0604051908101604052908160008201548152602001600182015481526020016002820154815260200160038201548152602001600482015481526020016005820154600019166000191681525050838261ffff16600a811015156104b457fe5b60200201819052508080600101915050610423565b8292505050919050565b600360009054906101000a900463ffffffff1681565b600080905090565b6104f961069f565b60008034915061050e84850286870201610380565b9050808281151561051b57fe5b048360000181815250508683602001818152505085836040018181525050808502836060018181525050808402836080018181525050878360a00190600019169081600019168152505061056e836105b5565b829250505095945050505050565b60008181548110151561058b57fe5b9060005260206000209060089182820401919006600402915054906101000a900463ffffffff1681565b6000600360009054906101000a900463ffffffff16905081600260008363ffffffff1663ffffffff168152602001908152602001600020600082015181600001556020820151816001015560408201518160020155606082015181600301556080820151816004015560a082015181600501906000191690559050506003600081819054906101000a900463ffffffff168092919060010191906101000a81548163ffffffff021916908363ffffffff160217905550505050565b61078060405190810160405280600a905b6106896106d9565b8152602001906001900390816106815790505090565b60c0604051908101604052806000815260200160008152602001600081526020016000815260200160008152602001600080191681525090565b60c06040519081016040528060008152602001600081526020016000815260200160008152602001600081526020016000801916815250905600a165627a7a72305820a1712ff9d3fd171c0bff00a004e326a9e8513745f1afe61b4971df4ce9c35ad60029",
  "source": "pragma solidity ^0.4.18;\n// We have to specify what version of compiler this code will compile with\n\ncontract Solar {\n    struct Planet {\n        uint mass;\n        uint x;\n        uint y;\n        uint vx;\n        uint vy;\n        bytes32 name; // strings are bad.\n    }\n  \n    // mapping (bytes32 => Planet) public planetMap;\n    // Planet[] planetList; // = new Planet[](128); // Would like to only allow N\n\n    /** array holding ids of the curret planets*/\n    uint32[] public ids;\n    /** the id to be given to the net planet **/\n    uint32 public nextId;\n    /** the planet belonging to a given id */\n    mapping(uint32 => Planet) planets;\n\n\n    /** total number of planets in the game (uint32 because of multiplication issues) */\n    uint32 public numPlanets;\n    /** The maximum of planets allowed in the game */\n    uint16 public maxPlanets;\n\n    /*\n     *  adds a single planet\n     */\n    function addPlanet(bytes32 name, uint x, uint y, uint initialVx, uint initialVy) public payable returns (Planet planet) {\n        var momentum = msg.value;\n        var velocityMagnitude = sqrt(initialVx*initialVx + initialVy*initialVy);\n        // TODO: if velocityMagnitude is 0...\n        planet.mass = momentum / velocityMagnitude;\n        \n        planet.x = x;\n        planet.y = y;\n        planet.vx = initialVx * velocityMagnitude;\n        planet.vy = initialVy * velocityMagnitude;\n        planet.name = name;\n\n        addPlanetToStorage(planet);\n        return planet;\n    }\n\n    function addPlanetToStorage(Planet planet) internal {\n        // TODO: use maxPlanets eventually\n        var id = numPlanets;\n        planets[id] = planet;\n        numPlanets++;\n    }\n\n    /****************** GETTERS *************************/\n\n\n    // Cannot return a struct externally\n    function getPlanet(uint32 planetId) public constant returns(bytes32 name, uint mass, uint x, uint y, uint vx, uint vy) {\n        var planet = planets[planetId];\n        return (planet.name, planet.mass, planet.x, planet.y, planet.vx, planet.vy);\n    }\n\n    function get10Planets(uint16 startIndex) public constant returns(Planet[10] planetsToReturn) {\n        uint32 endIndex = startIndex + 10 > numPlanets ? numPlanets : startIndex + 10;\n        for (uint16 i = startIndex; i < endIndex; i++) {\n            planetsToReturn[i] = planets[i];\n        }\n        return planetsToReturn;\n    }\n\n    function getNumPlanets() public constant returns(uint numPlanets) {\n        return numPlanets;\n    }\n    \n    /****************** HELPERS *************************/\n\n    // From PR#50\n    function sqrt(uint x) pure public returns (uint y) {\n        uint z = (x + 1) / 2;\n        y = x;\n        while (z < y) {\n            y = z;\n            z = (x / z + z) / 2;\n        }\n    }\n}",
  "sourcePath": "/Users/alexanderquinlan/Documents/workspace/Dapps/Solar/contracts/Solar.sol",
  "compiler": {
    "name": "solc",
    "version": "0.4.18+commit.9cf6e910.Emscripten.clang"
  },
  "schemaVersion": "1.0.1",
  "updatedAt": "2017-12-02T21:57:23.329Z"
}